:100000000C9474000C9495000C9495000C9495003D
:100010000C9495000C9495000C9495000C9495000C
:100020000C9495000C9495000C9495000C949500FC
:100030000C9495000C9495000C9495000C949500EC
:100040000C9495000C9495000C9495000C949500DC
:100050000C9495000C9495000C9495000C949500CC
:100060000C9495000C9495000C9495000C949500BC
:100070000C9495000C9495000C9495000C949500AC
:100080000C9495000C9495000C9495000C9495009C
:100090000C9495000C9495000C9495000C9495008C
:1000A0000C9495000C9495000C9495000C9495007C
:1000B0000C9495000C9495000C9495000C9495006C
:1000C0000C9495000C9495000C9495000C9495005C
:1000D0000C9495000C9495000C9495000C9495004C
:1000E0000C9495000C94970011241FBECFEFD1E221
:1000F000DEBFCDBF00E00CBF12E0A0E0B2E0EEE159
:10010000FBE000E00BBF02C007900D92AC34B107DA
:10011000D9F721E1ACE4B2E001C01D92A63FB207DD
:10012000E1F70E941F010C948D050C9400008A30A9
:1001300049F09091C00095FFFCCF8093C60080E00D
:1001400090E008959091C00095FFFCCF9DE09093C2
:10015000C600EFCF9093C5008093C40086E08093E3
:10016000C20088E98093C10008959091C00095FF76
:10017000FCCF8093C60008958091C00087FFFCCF1C
:100180008091C60008958091C000881F8827881F2D
:100190000895FC012081222351F031969091C000F6
:1001A00095FFFCCF2093C60021912111F7CF089530
:1001B00080E092E09093EF118093EE111092C500D1
:1001C00082E38093C40086E08093C20088E9809334
:1001D000C1000895FC019091C00097FFFCCF909161
:1001E000C6009193992329F09A3011F09D3099F728
:1001F00011929E2F981B892F0895FC0120812223A4
:1002000051F031969091C00095FFFCCF2093C6002D
:1002100021912111F7CF0895FC010FB6F894609158
:10022000F2117091F3118091F4119091F5110FBEBC
:10023000309721F0608371838283938308958F9236
:100240009F92AF92BF92CF92DF92EF92FF920F9365
:100250001F93CF93DF930E94D80080E090E00E942C
:100260000C01CB010E94210226982E9AC12CD12C80
:10027000C0E0D0E028EEE22E23E0F22E02E112E010
:100280000FC08FEF93ED20E3815090402040E1F7C5
:1002900000C00000C851DC4F85E0C816D1043CF511
:1002A0001E99EFCF0E941D025C01CE01B7010E9492
:1002B000AA014B019F926F93BF92AF921F930F932E
:1002C0000E942C02F601EE0FFF1FEE0FFF1FE45BF2
:1002D000FD4F80829182A282B3822FEFC21AD20A8E
:1002E0000F900F900F900F900F900F90CACF8EE24B
:1002F00092E00E944002CCE4D2E000E010E082E113
:10030000E82E82E0F82E89818F9388818F938B81EC
:100310008F938A818F93FF92EF920E942C020F5F3E
:100320001F4F24960F900F900F900F900F900F90EB
:100330000C151D0544F380E090E0DF91CF911F91F3
:100340000F91FF90EF90DF90CF90BF90AF909F9074
:100350008F90089597FB072E16F4009407D077FD31
:1003600009D00E94BE0107FC05D03EF4909581950E
:100370009F4F0895709561957F4F0895AA1BBB1BF1
:1003800051E107C0AA1FBB1FA617B70710F0A61B95
:10039000B70B881F991F5A95A9F780959095BC01B6
:1003A000CD0108958F929F92AF92BF92CF92DF922C
:1003B000EF92FF92CF93DF93EC01688179818A817C
:1003C0009B81611571058105910521F464E279ED48
:1003D0008BE597E02DE133EF41E050E00E942A05E4
:1003E00049015A019B01AC01A7EAB1E40E94490509
:1003F0006B017C01ACEEB4EFA50194010E9457059E
:10040000DC01CB018C0D9D1DAE1DBF1DB7FF03C0D0
:100410000197A109B04888839983AA83BB839F77FA
:10042000DF91CF91FF90EF90DF90CF90BF90AF9092
:100430009F908F9008950C94D2018EE092E00C94DE
:10044000D201A0E0B0E080930E0290930F02A0933F
:100450001002B09311020895CF93DF93CDB7DEB7AA
:10046000AE014A5F5F4FFA0161917191AF018091D6
:10047000EE119091EF110E947002DF91CF910895DB
:100480000F931F93CF93DF93E091EE11F091EF1153
:10049000238121FF1BC08C01D0E0C0E0F8018191D5
:1004A0008F016091EE117091EF11DB011896ED91C3
:1004B000FC911997882331F01995892B79F3DFEF97
:1004C000CFEFECCF8AE01995892B19F08FEF9FEFD2
:1004D00002C08D2F9C2FDF91CF911F910F91089516
:1004E0002F923F924F925F926F927F928F929F9244
:1004F000AF92BF92CF92DF92EF92FF920F931F9332
:10050000CF93DF93CDB7DEB72B970FB6F894DEBF4E
:100510000FBECDBF6C017B018A01FC0117821682E0
:10052000838181FFCCC1CE0101963C01F60193810C
:10053000F70193FD859193FF81917F01882309F451
:10054000BAC1853239F493FD859193FF81917F0182
:10055000853229F4B60190E00E949004E7CF912CF7
:10056000212C312CFFE1F315D8F08B3279F038F4DF
:10057000803279F08332A1F4232D20611DC08D32A9
:1005800061F0803369F4232D216016C0832D8260D1
:10059000382EE32DE4603E2E2AC0F32DF8601DC0F6
:1005A00037FC2DC020ED280F2A3040F08E32B9F4F0
:1005B00036FC81C1232D2064322E19C036FE06C0C0
:1005C0008AE0989E200D1124922E11C0EAE02E9E02
:1005D000200D1124222EF32DF0623F2E08C08C3600
:1005E00021F4832D8068382E02C0883641F4F7014B
:1005F00093FD859193FF81917F018111B3CF982F56
:100600009F7D9554933028F40C5F1F4F9FE399838F
:100610000DC0833631F0833771F0833509F059C04E
:1006200021C0F801808189830E5F1F4F8824839445
:10063000912C530113C02801F2E04F0E511CF80118
:10064000A080B18036FE03C0692D70E002C06FEF5C
:100650007FEFC5010E9485044C018201F32DFF77D5
:100660003F2E16C0280122E0420E511CF801A08046
:10067000B18036FE03C0692D70E002C06FEF7FEFDE
:10068000C5010E947A044C01F32DF0683F2E8201CF
:1006900033FC1BC0822D90E088169906B0F4B60199
:1006A00080E290E00E9490042A94F4CFF50137FC98
:1006B000859137FE81915F01B60190E00E94900420
:1006C00021102A9421E0821A91088114910471F773
:1006D000E8C0843611F0893641F5F80137FE07C0CD
:1006E00060817181828193810C5F1F4F08C060819E
:1006F0007181072E000C880B990B0E5F1F4FF32D95
:10070000FF763F2E97FF09C0909580957095619573
:100710007F4F8F4F9F4FF0683F2E2AE030E0A301BC
:100720000E94CC04882E861845C0853731F4232DCD
:100730002F7EB22E2AE030E025C0932D997FB92E6E
:100740008F36C1F018F4883579F0B5C0803719F0CC
:10075000883721F0B0C0E92FE061BE2EB4FE0DC095
:10076000FB2DF460BF2E09C034FE0AC0292F26607D
:10077000B22E06C028E030E005C020E130E002C023
:1007800020E132E0F801B7FE07C06081718182810B
:1007900093810C5F1F4F06C06081718180E090E003
:1007A0000E5F1F4FA3010E94CC04882E8618FB2DDC
:1007B000FF773F2E36FE0DC0232D2E7FA22E8914EB
:1007C00058F434FE0BC032FC09C0832D8E7EA82E57
:1007D00005C0B82CA32C03C0B82C01C0B92CA4FEB2
:1007E0000FC0FE01E80DF11D8081803321F49A2DA8
:1007F000997EA92E09C0A2FE06C0B394B39404C08A
:100800008A2D867809F0B394A3FC11C0A0FE06C01F
:10081000B21488F4280C922C9B180EC0B21460F409
:10082000B60180E290E00E949004B394F7CFB21436
:1008300018F42B1802C0982C212CA4FE10C0B6016D
:1008400080E390E00E949004A2FE17C0A1FC03C0C8
:1008500088E790E002C088E590E0B6010CC08A2DE0
:10086000867859F0A1FE02C08BE201C080E2A7FCAD
:100870008DE2B60190E00E949004891438F4B6012C
:1008800080E390E00E9490049A94F7CF8A94F30159
:10089000E80DF11D8081B60190E00E949004811066
:1008A000F5CF222009F442CEB60180E290E00E940A
:1008B00090042A94F6CFF6018681978102C08FEFCB
:1008C0009FEF2B960FB6F894DEBF0FBECDBFDF9122
:1008D000CF911F910F91FF90EF90DF90CF90BF903D
:1008E000AF909F908F907F906F905F904F903F90D0
:1008F0002F900895FC010590615070400110D8F7C9
:10090000809590958E0F9F1F0895FC016150704057
:1009100001900110D8F7809590958E0F9F1F089534
:100920000F931F93CF93DF93FB01238121FD03C01E
:100930008FEF9FEF2CC022FF16C046815781248184
:1009400035814217530744F4A081B1819D012F5F87
:100950003F4F318320838C93268137812F5F3F4F18
:100960003783268314C08B01EC01FB010084F185E1
:10097000E02D1995892BE1F6D80116968D919C9161
:100980001797019617969C938E931697CE01DF9139
:10099000CF911F910F910895FA01AA27283051F1A4
:1009A000203181F1E8946F936E7F6E5F7F4F8F4FA0
:1009B0009F4FAF4FB1E03ED0B4E03CD0670F781FFF
:1009C000891F9A1FA11D680F791F8A1F911DA11DE4
:1009D0006A0F711D811D911DA11D20D009F468941D
:1009E0003F912AE0269F11243019305D3193DEF6C5
:1009F000CF010895462F4770405D4193B3E00FD07B
:100A0000C9F7F6CF462F4F70405D4A3318F0495D65
:100A100031FD4052419302D0A9F7EACFB4E0A69548
:100A20009795879577956795BA95C9F7009761056A
:100A3000710508959B01AC010A2E069457954795C0
:100A400037952795BA95C9F7620F731F841F951FB5
:100A5000A01D0895052E97FB1EF400940E944105E9
:100A600057FD07D00E945C0507FC03D04EF40C94A0
:100A7000410550954095309521953F4F4F4F5F4F21
:100A8000089590958095709561957F4F8F4F9F4FFA
:100A900008950E947E05A59F900DB49F900DA49F80
:100AA000800D911D11240895B7FF0C9449050E94F3
:100AB0004905821B930B0895A1E21A2EAA1BBB1BAA
:100AC000FD010DC0AA1FBB1FEE1FFF1FA217B3071A
:100AD000E407F50720F0A21BB30BE40BF50B661F30
:100AE000771F881F991F1A9469F7609570958095F4
:100AF00090959B01AC01BD01CF010895A29FB0016B
:100B0000B39FC001A39F700D811D1124911DB29F41
:0E0B1000700D811D1124911D0895F894FFCFE2
:100B1E00000000020000000097000000000001002D
:100B2E00000063757272656E743A2025642C207411
:100B3E00696D657374616D703A2025640A00507298
:100B4E00696E74696E67206C6173742035206D65F3
:0C0B5E0061737572656D656E7473000044
:00000001FF
