:100000000C9472000C9493000C9493000C94930045
:100010000C9493000C9493000C9493000C94930014
:100020000C9493000C9493000C9493000C94930004
:100030000C9493000C9493000C9493000C949300F4
:100040000C9493000C9493000C9493000C949300E4
:100050000C9493000C9493000C9493000C949300D4
:100060000C9493000C9493000C9493000C949300C4
:100070000C9493000C9493000C9493000C949300B4
:100080000C9493000C9493000C9493000C949300A4
:100090000C9493000C9493000C9493000C94930094
:1000A0000C9493000C9493000C9493000C94930084
:1000B0000C9493000C9493000C9493000C94930074
:1000C0000C9493000C9493000C9493000C94930064
:1000D0000C9493000C9493000C9493000C94930054
:1000E0000C94930011241FBECFEFD1E2DEBFCDBF31
:1000F00000E00CBF12E0A0E0B2E0E4E5FBE000E0CD
:100100000BBF02C007900D92AE32B107D9F721E1C3
:10011000AEE2B2E001C01D92A23DB207E1F70E943B
:1001200025010C94A8050C940000EF92FF920F9308
:100130001F93CF93DF93CDB7DEB768970FB6F894D0
:10014000DEBF0FBECDBFF62EE72E9F938F9384E0C8
:1001500092E09F938F938E01035F1F4F1F930F9326
:100160000E946B02C8010E940301EF92FF9289E096
:1001700092E09F938F930C5011091F930F930E944D
:100180006B02C8010E9403010FB6F894DEBF0FBED8
:10019000CDBF68960FB6F894DEBF0FBECDBFDF911E
:1001A000CF911F910F91FF90EF9008951092C5008D
:1001B00083E38093C40086E08093C20088E9809343
:1001C000C10008959091C00095FFFCCF8093C600B8
:1001D00008958091C00087FFFCCF8091C6000895EC
:1001E000FC019091C00097FFFCCF9091C6009193C5
:1001F000992329F09A3011F09D3099F711929E2F92
:10020000981B892F0895FC012081222351F03196FB
:100210009091C00095FFFCCF2093C6002191211141
:10022000F7CF0895FC010FB6F8946091CE1170914C
:10023000CF118091D0119091D1110FBE309721F044
:10024000608371838283938308952F923F924F92AC
:100250005F926F927F928F929F92AF92BF92CF9256
:10026000DF92EF92FF920F931F93CF93DF93CDB75F
:10027000DEB768970FB6F894DEBF0FBECDBF0E9401
:10028000D60080E090E00E941201CB010E94600243
:1002900026982E9A812C912C00E010E0CE010D962C
:1002A0007C01FE0131965F0174E0672E72E0772ECB
:1002B000E9E04E2EE2E05E2E10C09FEFE3EDF0E3AA
:1002C0009150E040F040E1F700C0000008511C4FA1
:1002D0002AE08216910408F042C01E99EECF0E94D7
:1002E0005C021C0198013695279536952795369521
:1002F0002795A5ECB0E20E9402026C01D294C29450
:100300005FE0C522CD24D522CD243F922F927F924B
:100310006F92FF92EF920E946B02C7010E9403014D
:10032000DF92CF925F924F92BF92AF920E946B0288
:10033000C5010E940301F401EE0FFF1FEE0FFF1F26
:10034000E25DFD4FD182C08222823382FFEF8F1A9D
:100350009F0A0FB6F894DEBF0FBECDBFAECF8EE0C2
:1003600092E00E9403010EE212E0C12CD12C84E045
:10037000682E82E0782E99E0492E92E0592EF801FD
:100380003080218083818F9382818F937F926F92BF
:10039000FF92EF920E946B02C7010E9403012F920D
:1003A0003F925F924F92BF92AF920E946B02C50143
:1003B0000E940301FFEFCF1ADF0A0C5F1F4F0FB639
:1003C000F894DEBF0FBECDBF8C149D04C1F680E053
:1003D00090E068960FB6F894DEBF0FBECDBFDF91F8
:1003E000CF911F910F91FF90EF90DF90CF90BF9032
:1003F000AF909F908F907F906F905F904F903F90C5
:100400002F900895A29FB001B39FC001A39F700DCC
:10041000811D1124911DB29F700D811D1124911D0C
:1004200008958F929F92AF92BF92CF92DF92EF92F8
:10043000FF92CF93DF93EC01688179818A819B8160
:10044000611571058105910521F464E279ED8BE573
:1004500097E02DE133EF41E050E00E94540549015F
:100460005A019B01AC01A7EAB1E40E9473056B013C
:100470007C01ACEEB4EFA50194010E948105DC0182
:10048000CB018C0D9D1DAE1DBF1DB7FF03C0019795
:10049000A109B04888839983AA83BB839F77DF91A2
:1004A000CF91FF90EF90DF90CF90BF90AF909F9053
:1004B0008F9008950C94110280E092E00C94110248
:1004C000A0E0B0E08093000290930102A0930202AA
:1004D000B093030208950F931F93CF93DF93CDB78B
:1004E000DEB72E970FB6F894DEBF0FBECDBF0E89D4
:1004F0001F8986E08C831A8309838FEF9FE79E8391
:100500008D83AE01465E5F4F688D798DCE01019679
:100510000E949A02EF81F885E00FF11F10822E965B
:100520000FB6F894DEBF0FBECDBFDF91CF911F9104
:100530000F9108952F923F924F925F926F927F9208
:100540008F929F92AF92BF92CF92DF92EF92FF92E3
:100550000F931F93CF93DF93CDB7DEB72B970FB6D3
:10056000F894DEBF0FBECDBF6C017B018A01FC0198
:1005700017821682838181FFCCC1CE0101963C0196
:10058000F6019381F70193FD859193FF81917F019E
:10059000882309F4BAC1853239F493FD859193FF1C
:1005A00081917F01853229F4B60190E00E94BA045E
:1005B000E7CF912C212C312CFFE1F315D8F08B32B1
:1005C00079F038F4803279F08332A1F4232D206160
:1005D0001DC08D3261F0803369F4232D216016C077
:1005E000832D8260382EE32DE4603E2E2AC0F32D49
:1005F000F8601DC037FC2DC020ED280F2A3040F0D8
:100600008E32B9F436FC81C1232D2064322E19C0FC
:1006100036FE06C08AE0989E200D1124922E11C04D
:10062000EAE02E9E200D1124222EF32DF0623F2EA3
:1006300008C08C3621F4832D8068382E02C088369D
:1006400041F4F70193FD859193FF81917F01811121
:10065000B3CF982F9F7D9554933028F40C5F1F4F94
:100660009FE399830DC0833631F0833771F0833572
:1006700009F059C021C0F801808189830E5F1F4FA6
:1006800088248394912C530113C02801F2E04F0E6B
:10069000511CF801A080B18036FE03C0692D70E0C6
:1006A00002C06FEF7FEFC5010E94AF044C018201D1
:1006B000F32DFF773F2E16C0280122E0420E511C79
:1006C000F801A080B18036FE03C0692D70E002C041
:1006D0006FEF7FEFC5010E94A4044C01F32DF06879
:1006E0003F2E820133FC1BC0822D90E088169906B4
:1006F000B0F4B60180E290E00E94BA042A94F4CFEC
:10070000F50137FC859137FE81915F01B60190E0DC
:100710000E94BA0421102A9421E0821A91088114BF
:10072000910471F7E8C0843611F0893641F5F8017B
:1007300037FE07C060817181828193810C5F1F4FFA
:1007400008C060817181072E000C880B990B0E5F29
:100750001F4FF32DFF763F2E97FF09C09095809590
:10076000709561957F4F8F4F9F4FF0683F2E2AE025
:1007700030E0A3010E94F604882E861845C0853714
:1007800031F4232D2F7EB22E2AE030E025C0932DA8
:10079000997FB92E8F36C1F018F4883579F0B5C03D
:1007A000803719F0883721F0B0C0E92FE061BE2E04
:1007B000B4FE0DC0FB2DF460BF2E09C034FE0AC08C
:1007C000292F2660B22E06C028E030E005C020E1C7
:1007D00030E002C020E132E0F801B7FE07C06081DE
:1007E0007181828193810C5F1F4F06C0608171818E
:1007F00080E090E00E5F1F4FA3010E94F604882E58
:100800008618FB2DFF773F2E36FE0DC0232D2E7F41
:10081000A22E891458F434FE0BC032FC09C0832D7B
:100820008E7EA82E05C0B82CA32C03C0B82C01C006
:10083000B92CA4FE0FC0FE01E80DF11D80818033AC
:1008400021F49A2D997EA92E09C0A2FE06C0B39468
:10085000B39404C08A2D867809F0B394A3FC11C028
:10086000A0FE06C0B21488F4280C922C9B180EC06F
:10087000B21460F4B60180E290E00E94BA04B3942E
:10088000F7CFB21418F42B1802C0982C212CA4FE18
:1008900010C0B60180E390E00E94BA04A2FE17C027
:1008A000A1FC03C088E790E002C088E590E0B601B3
:1008B0000CC08A2D867859F0A1FE02C08BE201C0DF
:1008C00080E2A7FC8DE2B60190E00E94BA04891490
:1008D00038F4B60180E390E00E94BA049A94F7CF0E
:1008E0008A94F301E80DF11D8081B60190E00E9429
:1008F000BA048110F5CF222009F442CEB60180E27D
:1009000090E00E94BA042A94F6CFF601868197817E
:1009100002C08FEF9FEF2B960FB6F894DEBF0FBE8D
:10092000CDBFDF91CF911F910F91FF90EF90DF909E
:10093000CF90BF90AF909F908F907F906F905F907F
:100940004F903F902F900895FC01059061507040AA
:100950000110D8F7809590958E0F9F1F0895FC0188
:100960006150704001900110D8F7809590958E0FDE
:100970009F1F08950F931F93CF93DF93FB01238154
:1009800021FD03C08FEF9FEF2CC022FF16C04681D0
:100990005781248135814217530744F4A081B181E6
:1009A0009D012F5F3F4F318320838C9326813781B8
:1009B0002F5F3F4F3783268314C08B01EC01FB016F
:1009C0000084F185E02D1995892BE1F6D801169662
:1009D0008D919C911797019617969C938E931697DD
:1009E000CE01DF91CF911F910F910895FA01AA27AF
:1009F000283051F1203181F1E8946F936E7F6E5F62
:100A00007F4F8F4F9F4FAF4FB1E03ED0B4E03CD00F
:100A1000670F781F891F9A1FA11D680F791F8A1FF2
:100A2000911DA11D6A0F711D811D911DA11D20D059
:100A300009F468943F912AE0269F11243019305D13
:100A40003193DEF6CF010895462F4770405D419304
:100A5000B3E00FD0C9F7F6CF462F4F70405D4A3351
:100A600018F0495D31FD4052419302D0A9F7EACF19
:100A7000B4E0A6959795879577956795BA95C9F748
:100A800000976105710508959B01AC010A2E06943B
:100A90005795479537952795BA95C9F7620F731FF4
:100AA000841F951FA01D0895052E97FB1EF400942A
:100AB0000E946B0557FD07D00E94860507FC03D0F6
:100AC0004EF40C946B0550954095309521953F4F11
:100AD0004F4F5F4F089590958095709561957F4F2A
:100AE0008F4F9F4F08950E940202A59F900DB49FC3
:100AF000900DA49F800D911D11240895B7FF0C94B3
:100B000073050E947305821B930B0895A1E21A2EB0
:100B1000AA1BBB1BFD010DC0AA1FBB1FEE1FFF1FA1
:100B2000A217B307E407F50720F0A21BB30BE40BF1
:100B3000F50B661F771F881F991F1A9469F7609538
:100B40007095809590959B01AC01BD01CF010895F2
:040B5000F894FFCF47
:100B5400010000002564410A002564730A005072F4
:100B6400696E74696E67206C617374203130206D16
:0E0B74006561737572656D656E74730A0000BD
:00000001FF
